:20000000003C0120651B010039FB021039FB021039FB021039FB021039FB021039FB02105E
:1C00200039FB021039FB021039FB021039FB021039FB021039FB021011FB021002
:20003C002DE9F04FC04D00204FF002092860ADF14C0DC5F808904FF0FF3068600020E86066
:20005C00102016F0E0F9286150B1002105F1140701600E4647602B69866005F15004DC605D
:20007C008CA0082768614FF0FF36EF612C46AE614020246216F0C7F9AC4A14340746284656
:20009C004762002027B1C10000237B5079184A60401C0828F6DB82A028650327AF652B46FE
:2000BC006E651820EB6516F0AEF9286658B180A101609F4980A2416007468260F96017B108
:2000DC007FA0386179610020A86201272F63EE6208206C6316F097F9A86320B10021016053
:2000FC0005F13C07476078A0E86306276F6405F128042E643020AC6416F085F90746EF6469
:20011C00C8B177A101608B49416077A28260002FF96010D076A0386178A2796107F1180640
:20013C003260F96107D077A038627BA2796207F128063260F96216F0F5FD12F00BFA071C02
:20015C0000F01A8615F0AEFA7B498446002031F80C6F002E40F00C864FF6F878A1F8008036
:20017C004F60764C207000228A607868E060604615F04CFC04F144060021304616F0CEFD9C
:20019C00DFF8C0B16E4941F288320023266104F150000091594612F00DFB6B4F6B4900229E
:2001BC00152307F128000090102007F0EDFF6849102000224B4607F0E7FF4FF48060012172
:2001DC003A4605F0C5FA40F2024001217A1C05F0BFFABA1C40F20340012105F0B9FAFA1CCA
:2001FC0040F20640012105F0B3FA3A1D40F21140012105F0ADFA7A1D40F20D40012105F0E2
:20021C00A7FABA1D40F21240012105F0A1FAFA1D40F20C40012105F09BFA07F108024FF48E
:20023C008360012105F094FA07F1090240F20740012105F08DFA07F10A0240F21440012154
:20025C0005F086FA07F10B0240F21540012105F07FFAD34910204FF0FF3207F095FFD14990
:20027C0010204FF0FF3207F08FFF1020D94E0090DA4AD948132331460190102007F084FF29
:20029C00202016F0C0F80146D548816000296FD060E0C046576F726B207769746800C046CC
:2002BC00536574204175746F436F6E6E6563740044697361626C650047726F757020410051
:2002DC0047726F757020420053657420436F6E6E2050485920507265666572656E63650089
:2002FC0031204D62707300C032204D62707300C03120262032204D62707300C0436F6465E5
:20031C006400C0463120262032204D6270732C202620436F646564004175746F20504859C1
:20033C00206368616E67650088300020092F010029830000258D0000E81C0020E00F002079
:20035C0009240020C13F01003C1D0020AD0B01001D31010008F1070013F006FDA04AD249A7
:20037C0010201123009014320191314607F00CFF9B4904F13C004860CC4904F134021020EF
:20039C0007F002FF207814F05FF9C9490246102007F0FAFE207814F057F9C6490246102069
:2003BC0007F0F2FEC4491020FB2240F6480307F0EBFEC249102007F0E7FEC14E06F118004A
:2003DC0006F10C010DF08EF8BE49B06015F0F6FEDFF8F4A2B0684FF4E0215246521E13F096
:2003FC0075FBB0684FF4E021524613F06FFBDFF8DCA2B0684FF0C0515246521E13F066FBE7
:20041C00B0684FF0C051524613F060FB4FF0000A06F12400C822AE49CDF800A0534612F01D
:20043C00C9F9AC487060207814F00EF907F10C06034604224846A84900901020019607F031
:20045C00A3FE04F1E80904F1E800C022CDF8209051460FF0F4F9624808F1070614301190AD
:20047C000820401E29F8186BFBD14FF0FF30514610F08CFFA06051464FF0FF327FA028602C
:20049C00284614F0AFFBA068DFF8508258B1AD684DB1454607262861914B2E709148EB6078
:2004BC0013F0BCFBA06845462978524678A314F040FA07F1400607F11B030A9607F15C02F7
:2004DC000B93E01C0C9207F11001099004F174060D9104F12C030E96414A0F93D01C109098
:2004FC00E06800214FF040424FF0FF3316F012FC5FEA000BF4D0002005900DF11A0105AA9C
:20051C0006A813F0EBFD002840F00582BDF81800102840F0FC8120789DF81A10884240F044
:20053C00F681059E30884FF6FF71814200F0EF813778913F00F0A0813F3F40F0E881B7781F
:20055C002878A268002F00F1010000F0CD807F1F40F08081C749102007F016FE5FFA80F88C
:20057C00CDF800802978A0680022BEA3891CC9B214F0DFF905984778B246002F5DD1B0F899
:20059C000A90089E00270820183E36F8181F4FF6FF728A4208D0401E07F10107F5D136E061
:2005BC00314D010011360100A6F80090032015F02AFF706020B3082101707068A0F801909B
:2005DC00242015F020FFB06060B9706813F0E6FB16E0C04615470100088C01002C16002062
:2005FC00CC1800200899F80000EB0710401841680091BA49806841F27072012312F0DAF8B6
:20061C000899F800012600EB0710401806752E78A7680AF1040011F08FFD761C00900022A4
:20063C00A8A3F1B2384614F084F92E480121022214F0D8FAA84815F012FFB8F1080F12DA6D
:20065C00677887B900200090A249A2780023102007F09AFD002000909E49E2780023102085
:20067C0007F092FD53E1E278C049102007F08CFDA278BE49102007F087FD48E153696D7003
:20069C006C65205065726970686572616C00C0463D3D3D3D3D3D3D3D3D3D3D3D3D3D3D3D6B
:2006BC003D3D3D3D00C046C0148C0100E54D0100D96C02102D6D02100D520210397F011053
:2006DC00641F0020D13901000E0005800E000010AD5B01003F500100059500001822002012
:2006FC0051C00000883000207778002F40F00F81B1798DF80810F17900278DF80910317A76
:20071C008DF80C703B468DF80B308DF80A10F17A8DF80F10B17A8DF80E10717AA74B8DF89D
:20073C000D1002A90F681F6049685960C1B210469DA3002214F0FDF809989E499E4A0A9B3C
:20075C000090102007F020FDC7B20FB115F0CCF90D200B9F0090BB490197E27800231020F6
:20077C0007F012FDC7B20FB115F0BEF9E278BE491020922307F008FD002000905549E27878
:20079C000023102007F000FDC7B20FB115F0ACF92F78D4F808A0B01D11F0CEFC0FF2C42972
:2007BC00BF1DCDF800900022F9B2019050460FF2A82A534614F0BDF809987E497E4A0C9BFC
:2007DC000090102007F0E0FC06F10608C7B20FB115F08AF90B200D9F00909A490197E27868
:2007FC000023102007F0D0FCC7B20FB115F07CF9E2789D491020922307F0C6FC0020009086
:20081C003449E2780023102007F0BEFCC7B20FB115F06AF92E78A768404611F08DFCB61DA8
:20083C00CDF8009000225346F1B20190384614F080F810F0BFFEBD48009028490E9840F6BF
:20085C00B832012311F0B6FFB9480221002214F0C9F95CE0C1B2401CC3B210461A4615F071
:20087C0059FC54E04E756D20436F6E6E733A20256400C0469D31010077780F3F30D02F3F1F
:20089C0045D1B0780C2842D1F778A068297887B9F279012A08D0022A08BFB8A205D0032AA2
:2008BC000CBFB7A2B8A200E0BDA20092891CBDA301E0491CC0A3C9B2002214F03AF80C2020
:2008DC0022E0C046436F6E6E656374656420746F20257300ED74011030100020C13F0100D3
:2008FC00B08842F23201814211D1B278A06829781A2A1ABF0092BFA3C6A3491C0022C9B249
:20091C0014F017F842F2320031460EF0DBFC059808B115F038FD5FEADB70FFF4E1AD2069C8
:20093C0016F0F4F900287FF4DBAD2669304616F0E9F9864208BF002602D0866813F02EFAF8
:20095C00002EB246EBD09AF800000FF21C38401E082800F20582DFE810F0E101A101390127
:20097C00ED00D3008900010233000B0065020210DAF804004788384614F040FEA1682A7848
:20099C0008280EDA089BC10001EB0011C918C87D012840F0E581C04910203A4607F0F4FB3E
:2009BC00DEE1571C4346E1E0496E697469616C697A65640099010110C14C010097150020A4
:2009DC0070680026B0F80170ADF80E604FF41673ADF810304FF4C872ADF80A204FF44871D8
:2009FC00ADF80C10ADF80870384614F007FEA2682978082828DA089BC60006EB0016F6181B
:200A1C00B06816F07BF9B06818B113F0C7F90020B060706808B113F0C1F9C849102002AA19
:200A3C0007F0B2FBC0B2112840F09E810C2015F0EAFC011C00F098810F980F8114F0F9F893
:200A5C0092E1C04625A000001046491C43463246C9B213F06EFF87E1257320416464723AC0
:200A7C0020257300494400C01DEF011002200DF11B0111F0EBFE002840F072810DF11B01AD
:200A9C00109809780170C248D0F80890B9F1000F00F06681BC4800784FF00008404540F32B
:200ABC005F814FEA880000EB090739F800004FF6FF7181421DD0BB78DBB111981121C26824
:200ADC00109B934204D0491E00F11000F7D110E08346B878410805D3388801215A460EF0EC
:200AFC00E5FAB878800804D3388802215A460EF0DDFAA54F08F101005FFA80F83878CDE7F1
:200B1C0077687B7A4BB1A14800902978A0680022A0A3C91CC9B213F00CFF9C48009099499E
:200B3C00FA880023102007F02FFB19E10A2400208830002072681079A1682F781278DAB15B
:200B5C00521E10D0521E08D0521E40F0098100280EBF94A3009098A307E0002808BF9CA3AB
:200B7C0003D0A0A305E018B9A4A3FF1C8846EFE0A6A3FF1C8846EAE0A9A3F6E7324D00C02A
:200B9C00434F44454400C046556E6578706563746564205048592056616C756500C046C0CB
:200BBC00314D00C0504859205570646174656420746F20257300C046504859204368616EB7
:200BDC006765206661696C75726500C07768A26828783968491E35D0491E08D00E393BD13D
:200BFC0079680B780093498891A301912EE099A329E0C0465048592055706461746520530B
:200C1C007461747573204576656E743A203078257800C046504859204368616E67652066E3
:200C3C0061696C7572652C207065657220646F6573206E6F7420737570706F7274207468A9
:200C5C00697300C088A3796809780091001DC1B21046002213F06DFE3868B0F1004F7FD069
:200C7C00786813F09BF87BE0436F6E6E656374696F6E2068616E646C65206973206E6F747E
:200C9C0020696E2074686520636F6E6E4C6973742021212100C046C00D2B02107068007893
:200CBC00010921D240095BD30E2014F0A3FF002856D16A68A8689168814213D0B0F1FF3F21
:200CDC004ED0116951F830702FB901EBC001486812F0A4FF44E0116901EBC0014968C0B21F
:200CFC0088473DE0D068F3E70D2014F083FF002836D16968A8688968814208D0B0F1FF3FAC
:200D1C0009D0401C13F0B6F9B0F1FF3F02D1002013F0B0F9A8600AF0FBFA21E070682F78DB
:200D3C00D4F8088003787F1C53B19B1E18D1022007A911F08BFD51A307E0C046A5960110FF
:200D5C00002007A911F082FD4FA39DF81C000090F9B24046002213F0ECFD01E010F02AFCAE
:200D7C00706808B113F01AF8504613F017F8D6E5401C0628FFF4EBA915F073FB13B0BDE862
:200D9C00F08FC046F53F0100C10F002040E20100CC18002050617373636F64653A20256451
:200DBC0000C046C0426F6E642073617665207375636365737300C046426F6E6420736176F3
:200DDC0065206661696C65643A20256400C046C0456E6372797074696F6E20737563636506
:200DFC00737300C0456E6372797074696F6E206661696C65643A20256400C046506169720C
:200E1C00696E6720737563636573730050616972696E67206661696C3A20256400C046C030
:200E3C0050616972696E672073746172746564004164762053657420256420646973616282
:200E5C006C656420616674657220636F6E6E20256400C0464164762053657420256420441E
:200E7C00697361626C6564004164762053657420256420456E61626C656400C04368617269
:200E9C0020333A20256400C04368617220313A202564000038B586B004468DF805104FF642
:200EBC00FF720120ADF80220090ADFF8E458ADF8000002238DF806108DF8043069462A7828
:200EDC00204615F017FF162803D12978204615F00DFF07B030BD3EB504000D461ED0DFF898
:200EFC00B4080068224615F0FDFEFF2815D000200090002301AA294620460CF02BF860B9B3
:200F1C009DF8040000F0F0F8C00606D59DF8040000F0EAF810F0040000D001203EBDFEB595
:200F3C00164615244FF6FF7290420D4615D100208DF80400DFF858789DF80400B97988425A
:200F5C001AD23246294600F03AF800B100249DF80400401C8DF80400EEE715F0BFFE50B195
:200F7C0000F0FBFA40B99DF804003246294600F026F8002400E014242046FEBD7CB50D4608
:200F9C00044606214C43164600F081F8A8B900F079F890B99DF80700002E14BF054320EA76
:200FBC000505E9B2814206D08DF807506A460821A0B213F0DBFD012076BD002076BD2DE938
:200FDC00FC410646344606235C438846154600F05EF8002853D100F055F800284FD1DFF813
:200FFC00B077F879800014F0CFFF040003D1042013F006FC43E0F979E03689062246090E31
:20101C00B0B213F08BFD002835D1204600F058F85FEA08000ED1FA799206120E0021204611
:20103C0014F0EDF938BBFA7992000021204614F031FE16E0214600F030F858B9280004D076
:20105C002146002000F029F810B900F025FB16E0A0F800808178A9420DD085700DB9002158
:20107C000180204600F02CF8F97989062246090EB0B213F07BFD00F00FFB012000E00020E1
:20109C00BDE8F6810622FF21684614F0B8B920346A460821A0B213F041BD70B5DFF8F0360B
:2010BC00DD79002200E0521CD4B2AC4206D231F824608642F7D101EB840070BD002070BDDB
:2010DC0010B50021DFF8C8260AE030F82130DB4320F8213000EB8103491C9C78E4439C7044
:2010FC00D3799942F1DB10BDE0B50623584320306A46082180B213F011FD10B99DF80700EA
:20111C000EBD00200EBDDFF88806007808210BF05FB838B50025DFF8784619E0E0690623D3
:20113C0013FB05F300EBC5022033082198B213F0F5FC58B1E0690622FF2100EBC50014F0D3
:20115C00A9FDE06900EBC5010022CA716D1CEDB2A1798D42E2DBA07C10B1BDE8314031E2A2
:20117C0031BDF8B5DFF82816DFF82C3689791E680C460A4600E02A46D5B23DB1551ED2B284
:20119C00324412F8017C8742F5D12C46E4B220464D1E07E01718165C7F7817541A6802441C
:2011BC00401C5670A8421A68F4DBAC4204DABDE8F840052013F0DABCF1BD38B50020002470
:2011DC00DFF8CC5503E0E0B200F008F8641CAA79E1B2914201D20100F5D032BD2DE9F84FA8
:2011FC0083465D46062313FB05F58EB005F1200701AA0821B8B213F091FC002874D1062278
:20121C00FF2101A814F0FBF800286DD1DFF88065F079800014F0B8FE5FEA000904D10420E2
:20123C0013F0EEFA0A2061E01C22FF2103A814F031FDF2799200FF21484614F02BFD05F134
:20125C0023040AAA1021A0B213F068FC60B91022FF210AA814F0D3F830B99DF80A0001A98F
:20127C0000F0010015F036FD082200F042F801AA0821B8B213F07AFC8DF8000003AA05F1F6
:20129C00210000F03AF8074605F1220003AA00F034F8804603AA1021A0B213F067FC04461B
:2012BC0005F1240003AA102100F028F88246253503AA0421A8B248EA070713F057FC2743BC
:2012DC00F1799DF800504AEA0707074389060BF1E0034A46090E98B213F048FC0743484699
:2012FC0014F05AFE3D4300E0002528460FB0BDE8F08FFF2101A814F0CDBC1C2180B213F0D8
:20131C0035BC2DE9F84187B0FF208DF80000DFF88054A87914F038FE040004D1042013F090
:20133C006FFA0A2030E01022FF2103A814F0B2FCAA79FF21204614F0ADFC0622FFF7D9FFF3
:20135C0003AA1021022013F011FC064603AA1021032013F00BFC06436A460121042013F0C8
:20137C0005FC0746A9792246052013F0FFFB054601AA0621062013F0F9FB804600F08CF9E2
:20139C003E432E4348EA060008B0BDE8F081DFF800144088097813F05DBBF0B5A9B00646A0
:2013BC000D46144615F09AFC08B91420AAE0A4220021684614F06EFCADF800600DF1260717
:2013DC00DFF8CC63F078717B8DF80400B07B8DF8A000279861F30000717B27908A074CBF6C
:2013FC000222002220F0020010432790CA064CBF4FF48072002220F48070104327908A069F
:20141C004CBF4FF40072002220F40070104327904A064CBF4FF48062002220F48060104357
:20143C00279049074CBF0421002120F0040008432790F07B02280CBF01200020787415F090
:20145C0045FC412807DBF07B00B108209DF8991008438DF89900307CB8B10121B974202253
:20147C0006F188010DF1390014F00AFC202206F1A8010DF1590014F003FC202206F1C80151
:20149C000DF1790014F0FCFB00E0B874307B8DF8050088B1C14F102207F110010DF10600F5
:2014BC0014F0EEFB9DF89900082805D1102239460DF1160014F0E4FBF07A8DF8260028B159
:2014DC001022B7490DF1270014F0DAFB307948B1022D18BF032D03D1279840F0020027906C
:2014FC00012100E000219DF899000143B0788DF8991000B1042001438DF899106846214689
:20151C0015F0E0FB29B0F0BD2DE9FC41154615244FF6FF72904288460DD100279C4EB179F3
:20153C00F8B2884216D22A464146FFF727FD00B100247F1CF3E715F0D1FB50B100F00DF811
:20155C0040B99DF804002A464146FFF717FD002400E014242046BDE8F68100210091002349
:20157C00417901AA01F00101801D0BF0F3BC70B504460D4606204543082B88B0164603D1A5
:20159C00300758BF223500D521351C220021FFF7B1FE01AA1C21A8B213F0C0FA80B99DF88E
:2015BC001E00C01F0A280BD29DF830000090F20801AB02F0010206F00101204615F07EFB37
:2015DC0008B070BD38B515F075FB0024704D0FE0E8690622FF2100EBC40013F010FF28B99D
:2015FC00E86900EBC401002015F060FB641CE4B2A8798442ECDB31BD3EB50C4600250146EB
:20161C000095002301AA20460BF0A4FC38B99DF80400FFF769FDC00601D401203EBD00208D
:20163C003EBDF8B506460F4615460C2014F0ACFC040019D02681A77200202060E07245B17D
:20165C000821284614F004F8606018B900F024F80BE060605348016811B9046004E0014632
:20167C0008680028FBD10C600CB91520F2BD0120E0722A4639463046FFF78FFE04464448A4
:20169C00806900281CBF4368002B03D000220021304698472046F2BD204614F07DBC38B55C
:2016BC0005464048046803E02089A84204D02468002CF9D1012032BDE07A012807D100F0A8
:2016DC005CF820B13248007804210AF081FDE17A491CE1722846C9B200F002F8002032BD45
:2016FC0038B5022904462A4D02D003290DD01EE042F6C921FFF7CEFB02001CBFA869002825
:20171C0018D04368B3B105210CE042F6A621FFF7C1FB01001CBFA96900290BD04B684BB152
:20173C0002460421204601B0BDE830401847BDE8324000E031BD10B51A4A1468002101E009
:20175C00214624686CB123898342F9D1206800290CBF10600860606808B114F01DFCFFF73A
:20177C009BFF002010BD024604200E49096819B10B899342FAD1C87A70470A48006828B108
:20179C00006818B1C17A0029FAD1704700207047FC1A0020680F0020D03500208433002076
:2017BC00B4330020D435002038B5264C049D2070E2712372A1716572C80014F0E5FBE0618F
:2017DC00D8B1A279D200002114F064FAA07914F0DBFB206208B9E0690DE0A2791A4D0021E5
:2017FC0014F058FAA07914F0CFFB286050B9E06914F0D2FB206A14F0CFFBBDE83240042052
:20181C0012F0FEBFA279002114F044FA04F1E80015F048FA2178062011F072FCFFF779FCB2
:20183C002A68A179052013F079F948B1A179002004E02B680A1A521E1A54401C8842F8DBA1
:20185C0031BD00BFFC1A0020D03500202DE9F84F054688B0A978DFF83C67002710294FF04A
:20187C00060A3CD8DFE811F0110092039203920392033C00CF0092039203F50215010001B8
:20189C0047039203CB020D038A036878002826D115F004FA044615F0FDF9054615F0F6F95D
:2018BC008DF8000022461021022013F05FF92A461021032013F05AF96A460121042013F05E
:2018DC0055F99DF80000012818BF032807D1012015F0D8F902460621062013F047F955E3FF
:2018FC0068780028FBD195F80CB06C8900900023E97801AA01F00101281D0BF02BFB00287A
:20191C004FF0010875D19DF80400FFF7EDFB8146BBF1080FF07908BFB846800014F034FB3B
:20193C00050003D1042012F06BFF2FE370789DF8041002280CBF0120002000905B464A4688
:20195C002046FFF714FE1422002102A814F0A2F99DF804001AFB00F0243002AA102180B25C
:20197C0013F0DCF8B0B91022FF2102A813F047FD80B99DF804001AFB00FA0AF1250306AA14
:20199C00042198B213F0CAF802AA09F00101204615F074F9F1799DF804008906E0302A4666
:2019BC00090E80B213F0BAF898B92846FFF788FBBA4609E005EB8000018819B182782046C9
:2019DC0013F090FB0AF1010AF1795FFA8AF08842F0D3707A30B95FEA897003D53178204691
:2019FC0013F038F89DF80400FFF7BBFB284614F0D3FA7078022805D1B8F1000F02D020463C
:201A1C000FF034FCC2E2A888FFF795FE15F032F90028F7D1F07C012808D1FFF7CEFB306A37
:201A3C00F7740422002114F035F917E0307D012803D1FFF766FC377510E000240AE0306A69
:201A5C00E5B2415D012904D1E0B2FFF7C7FB316A4F55641CE0B2B1798842F0D3502013F071
:201A7C0031FCFFF756FB91E215F000F900280CD0B06900281CBF0468002C07D028690090B5
:201A9C006B7B2A7B6989E81CA0477EE26889012171E26878002840F0EB80A879C10740F13F
:201ABC00E7800822002105A814F0F4F8A88815F015F904006FD0D5F81480B8F1000F27D025
:201ADC000622002108F1110013F099FC58B306220021404613F093FCC8B998F8100000F082
:201AFC000109BB460BF1010B88F811B0009700230022494608F111000BF02CFA00285FFA5F
:201B1C008BF002D10028EDD101E000280BD16F61607900F001008DF81A000622A11D05A8C4
:201B3C0014F0AEF824E0D5F81480B8F1000F1FD098F8100000F001008DF81A00062208F182
:201B5C00110105A814F09CF86079012805D10622A11D04F10C0014F093F8062208F1110191
:201B7C00A01D14F08DF898F8100040F002006071A879410720794CBF40F0020000F0FD0034
:201B9C002071A879010720794CBF40F0200000F0DF00207106E0FFF7F0FD18B130780421BC
:201BBC000AF016FBA9799DF81B00890801F0010108438DF81B00A97900970A074CBF0821BF
:201BDC00002108438DF81B0000239DF81A1004AA05A80BF0BFF9F0B1002400E0641CB1799E
:201BFC00E0B288420AD2F069E3B20622FF2100EBC30013F004FC0028F0D009E0DFF8982347
:201C1C00107800281DBFDFF89413086804780C468DF8104019E06869B8B19DF810001AFB9E
:201C3C0000F023306A46102180B212F077FF60B91022FF21684613F0E2FB30B99DF81A0029
:201C5C0005A900F0010015F045F89DF81000B179884280F0D280F079800014F095F90400AD
:201C7C001DD1042012F0CCFD0A27A888FFF763FDB06900281CBF4368002B0FD06A78A888D1
:201C9C00012198476878002808D1A879C10705D5B369A8885C683A460321A04775E19DF8FD
:201CBC0010001AFB00F0203005AA082180B212F05DFF9DF81000FFF754FAF2799200FF2135
:201CDC00204613F0E7FFF1799DF810008906E0302246090E80B212F049FFF0699DF81030C2
:201CFC00082205A900EBC30013F0CAFF6A6992B1107C002302F1110100F0010014F0B2FF06
:201D1C006A6942B19DF810001AFB00F02330102180B212F02BFFAA6842B19DF810001AFB96
:201D3C0000F021301C2180B212F020FF2A6942B19DF810001AFB00F022301C2180B212F0C3
:201D5C0015FFEA68AAB19DF810001AFB00F02430102180B212F00AFFE86800F110029DF852
:201D7C0010001AFB00FA0AF12503042198B212F0FDFEB07C08B1FFF725FCB5F80480706A92
:201D9C004FF6FF7948B906F1160100910223844A4946012014F062FF7062716A11B3FF2032
:201DBC00039002220292019707A800900DF11203F28A404604F064FC68B99DF812009DF81F
:201DDC00131000EB012290B228B1706A418992B24046FFF7A4F8F28A706A0023494614F08F
:201DFC0039FF7062204614F0D7F8307A0028A8887FF43CAFFFF753FC3AE7152735E7687886
:201E1C0006281BD1A88814F069FFB8B1717C012904D013D3032907D00CD30FE04179A888FB
:201E3C000022FFF7FEFB09E00022002140F2094003F08EFCA888052114F008FFB0690028AF
:201E5C001CBF4368002B03D06A78A888022198479BE000970023E97801AA01F00101281D55
:201E7C000BF078F80028F3D19DF804001AFB00FA0AF1250305F10C02042198B212F076FE3B
:201E9C0083E0B06900281CBF4368002B03D0A888002200219847707810B9A88805216AE05B
:201EBC00A88814F01BFF040070D0A87AC10712D5009700236179002201F00101A01D0BF042
:201EDC0049F800281EBF60790028012803D0E868C0F3402028B1F07B022807D1A87A0107D0
:201EFC0004D4A888032114F0ADFE4FE06179A88805F1080227E02F7BAD88284614F0EEFE6E
:201F1C00040042D014F0B2FE00283ED100900023617901AA01F00101A01D0BF01BF828BBCB
:201F3C009DF80400FFF7E0F807F00C07042F11D0082F0BD00C2F0FD100F0090109290BD0CC
:201F5C00617900222846FFF76CFB1EE010F0090F02D1F5E7C107F3D501220092A37C9DF8E0
:201F7C00041002462846FFF702FB0EE070780028E6D10521284614F065FE06E0FFF7FDFB04
:201F9C0018B1307804210AF023F90127384609B0BDE8F08FFC1A002037360020D03500200E
:201FBC00B68701002DE9F84F012011F0ADFF012816D1DFF860663078002114F03FFE0400E1
:201FDC0004BF002012F01CFC00202072201D0AF0ADFE14F02FFE050003D1812014F026FE81
:201FFC0013E30120687105F59777DFF82C06DFF82C264178491C4170A879A0724020317890
:20201C0011700AF037FE2860616D4A78206DD10619D5816C0A681179032904D00CBF0120B5
:20203C00002012F0EDFB206D816C90F86C000A6802F1080A01281CBF002012F0E1FB216D05
:20205C00486F29683CE0C16E0A681179032904D00CBF0120002012F0D3FB206DC16E90F8B5
:20207C0098000A6802F1080A01281CBF002012F0C7FB216DDFF8A825D1F8A0002968DFF84A
:20209C00A435C8609AF82660032E19D8DFE806F002050C0F00F5B06001E000F53470C86063
:2020BC001088F887118808E000F5355001E000F6B870C8601888F8871988A5F8741102E007
:2020DC0000F5B060C8602868DFF85C65C168DFF85C8501F59071C16006229AF80000C0F329
:2020FC00801038700AF1020105F5947013F0C8FD04220AF10E0105F1240013F0C1FD306825
:20211C0095F8069000F10C0304220AF10E0103EB491013F0B5FD3068AB7900EB4313032232
:20213C000AF1120103F1100013F0AAFD05F12C099AF8150089F8020002220AF1160105F146
:20215C00300013F09DFD02220AF1180105F1320013F096FD02220AF11A0105F1340013F039
:20217C008FFDB9F80800688402220AF11C0105F1360013F085FD99F80200B9F80A10400087
:20219C0089F802000901B9F80400A9F80A104000A9F8040089B2B9F806004000A9F8060068
:2021BC0003046A8C521CDB0B5A438A4201D280B230B998F8000080210AF00AF83B2131E1C0
:2021DC0005F12E01284614F02DFD0520A881284614F024FD05220AF11E0105F1610013F0A6
:2021FC004FFD9AF82300400989F8000014F012FD6882618D401AB88105F161019AF823006D
:20221C00DFF82C7400F01F0089F80F004FF01C0A284614F0FBFC616D4A78206DD1064CBFBF
:20223C00816CC16E41F62102086800210171A97938681AFB01F142520021AB791AFB03F35C
:20225C0003445980AA791AFB02F210444160616DDFF8E0034A78D1060DD5DFF8DC138A7856
:20227C0051060AD5DFF8D423138841F20A418B4208BFDFF8CC03C5F89C01D5F89C112846A9
:20229C0088473A68A97902F10E031AFB01F15854AA7938681AFB02F202440020D0733968C2
:2022BC00A87901F10E021AFB00F0115C89F80D10606D4178CA061DD595F8960108B912F0A0
:2022DC009FFAA97938681AFB01F1014495F89601421E0A74A87939681AFB00F00844002105
:2022FC0041743A68A97902F112001AFB01F1002242522BE0A97938681AFB01F10144206DE1
:20231C0090F840200A74A87939681AFB00F00844216D91F841204274206D3968AB79403038
:20233C0001F112021AFB03F34188D15205F5CB710078012200F0030082400A70226D92F86B
:20235C004000800814BF0120022008713968A879DFF8F0B201F1140231681AFB00F301EB3A
:20237C004010D050A87939681AFB00F00844B6498161DBF814000078C107DBF8141009783E
:20239C004CBF1F200F208A07DBF81410097848BF40F020004A07DBF81410097848BF40F048
:2023BC0040000A073168AA7901EB421348BF40F080001872A979306800EB41120B2050728D
:2023DC003168AA7901EB42100421A04A81721078012806D13168A87901EB40120121D17200
:2023FC0007E0DBF824003168AA79407801EB4213D8723168A87901EB40121F21117630688D
:20241C00AA7900EB421100204876A87914F0FAFBAA79316852018850AA7931685201885871
:20243C0020B90721284614F0E9FBEEE08848AA79016801EB021014F0DDFBA8793168844B9C
:20245C0001EB4012196801EB00105060A979306800EB41125168C9F83C10AA7952018158E8
:20247C00C9F84410042198F8000009F0B1FE616D4A783868D10648BF02210AD4A9791AFB88
:20249C0001F101440A7C02F00302022A14BF04210621B9F8042095F806C04FF4C8738A18D9
:2024BC00698AAA615143B1FBF3F35B1C6B611AFB0CFCD5F800E06044DEF80CC040F6C4117E
:2024DC0001FB02C2D21AA2F5A8628260AA7938681AFB02F283189A682B689A6000F10C03BB
:2024FC00AA791AFB02F20C309B5C03F0EF038354A8793A681AFB00F002F10C030C321B5C26
:20251C0003F07F031354A8793A681AFB00F002F10C030C321B5C03F0F00343F002031354BF
:20253C00AB7938681AFB03F31844427B02F0F00242F001024273AA7938682B681AFB02F26A
:20255C000244906818613068AB7999F802C000F11402686940005B0111FB0C0000F5F660C2
:20257C00D05095F8960104280DD13068AA7900F114034FEA421C143053F80C20AB795B015C
:20259C0002F56162C2503068AA7900EB4210C37C03F0F00343F00403C374DBF83000326828
:2025BC00AB79006802EB431CB9F8062042436423B2FBF3F35943A1F59661CCF81C10306800
:2025DC00A97900EB4110C27E02F0F00242F00402C276A97938682A681AFB01FA00EB0A0193
:2025FC00516028460E2114F001FB1A4907200870204611F059F8AA790021204614F0F2FA1D
:20261C0028681549154A41618261BDE8F14F02F0D3BB00BFD50F0020780E0020D70F0020F8
:20263C008E0F0020900F00209C0E0020C70F0020980E002081010210C00C00209A0F002033
:20265C004DE50110748D0100980C0020CC0F0020A40E0020C80F0020DD310100020480807C
:20267C002DE9F84FDFF8B054A9780024FF2904BF002012F0C5F8A87813F0B2FA054605F1E7
:20269C00680605F5C9773168086805F1900808B1EC8311E0B07B002804BFB07E00280BD17E
:2026BC0098F80010002904BF3878002804D1287F012804BF688CE8832989E88B4118491CF0
:2026DC006981284614F08AFA01281EBFDFF84C040178012903D12989EC83491C69814FF6A5
:2026FC00FF79B07E01280DD1B28B6989288914F071FA38B1298968894A1C93B298422FD0B2
:20271C00B08B23E098F8000001280FD1B8F802206989288914F05EFA40B1298968894A1CFB
:20273C0093B298421CD0B8F802000FE03878012816D17A886989288914F04CFA80B129893F
:20275C0068894A1C93B298420AD0788892B2904206D04844688180B214F038FA4844E8834D
:20277C00387801280FD128897988401C80B2884209DB7C793C71022038702346A979224637
:20279C00002009F0BFFC05F59A71087920B128890021401CE983688105F12E08B07E0128EC
:2027BC004BD12A89B08B521C92B2904245D1688105F18601284614F035FAB08C6884002109
:2027DC002977E983E88969894118A981B08B298914F0FCF98146B8F80410308C728C01FBC4
:2027FC000909F08C8A4204BFB8F80810884202BFB38CB8F806108B4206D000090090B38CCD
:20281C00A9795208002004E0000900905208A979302014F0D7F9B07F88F80000718CA8F897
:20283C000410B08CA8F806002846F18CA8F8081014F0F4F90220B07601E0B8F80490EA8B10
:20285C00501C00FB09F040F6C41909FB00F100912B68D3F80CE07144D960B14B1B6819781B
:20287C00890903291BD1AF4BAF49DB7BDB0702D500230B8013E00B885B1C0B809BB2012BE2
:20289C0003BF05F59A71C98801F2DC51698A41434FF4C873B1FBF3F1491C696107E0698A56
:2028BC0041434FF4C873B1FBF3F35B1C6B61A86185F820204FF01C0BDFF870A2AB79DAF81A
:2028DC00000000F108021BFB03F3D1582A68116100F10801AB79D26868691BFB03F3121A47
:2028FC00CA50DAF80000AB7900F108021BFB03F3D1582A68916000F10C02A9791BFB01F1D0
:20291C000C30535C03F0F00343F002034354DAF80010AB798A1C1BFB03F30021D15238794E
:20293C0008B911F06DFFDAF80000AA7900F1100138791BFB02F240088854A879DAF8001074
:20295C001BFB00F00844002141743879042814D1A879DAF800101BFB00F001F11002103123
:20297C00135C3A7A43EA82030B54AA79DAF800001BFB02F2024420205074DAF80010A879BB
:20299C0001F112021BFB00F0002111526849A8790A6802F114034FEA401C143253F80C000B
:2029BC00AB79D5F814C05B0100EB4C00D050B07E02280DD10A68AE7902F1140376011432ED
:2029DC009859AB7998F800605B0119FB0600D0505448C27BD0075CD5DAF80000AC7900F177
:2029FC0008031BFB04F408301A59AB791BFB03F3A2F5A862C250DAF80000AC7900F1080321
:202A1C001BFB04F41A592B689A600098121A1A610868AC7900F11403640114301A59AB7970
:202A3C005B0102F5F662C250387904280BD10868AC7900F11403640114301A59AB795B01CB
:202A5C0002F56162C2500868AB7900F114025B01D058C5F834016427364A0B68106BAE795D
:202A7C00006803F11C04B8F804304343B3FBF7F7760109FB07F0A0F59660A0512E480378D9
:202A9C00012B30D10868A97900EB41120120D07230E0042C0BD10868AC7900F1140364019C
:202ABC0014301A59AB795B0102F56162C25038790A68AC7904280CBF4FF4AA504FF4E660F2
:202ADC0002F1140364011A59101AB8F8042009FB02F2A2F516729042BDD30821284614F0E6
:202AFC008DF8012016E0506A0968AA79407801EB4213D872A879DAF800102A681BFB00FBE7
:202B1C0001EB0B00506007210C48017028460DF035FA0020BDE8F28F780E0020D10F00207F
:202B3C003C0F0020980C002024360020980E00209C0E0020748D0100CC0F0020C80F00204C
:202B5C002DE9FC47D54C0F460546F80B80F000826078DFF84C83B90F80F0A481B90880F03E
:202B7C009581F90A80F0FF80390B80F0CA80380907D2F80FC0F0228227F080470EF06CF87E
:202B9C001CE213F038FC814612F05CFB002800F0B280082013F024FB002840F0AC8080200C
:202BBC0013F01EFB002840F0A68068460BF034FB012803D10098002800F09D8094F8290206
:202BDC00002840F0988000250126E8B213F04EF848B1837A3BB1867290F9090006FA00F0DE
:202BFC00C0B210F0ABFF6D1C032DEED30320207604F5C07013F0F9FB484613F0DFFFD148C2
:202C1C0000252A460168056050F8081CCE4940F8085C04F1540012F035FA40460068006B43
:202C3C008047A168401A010B206AC1F1FF3282422CBF08444FF0FF30206294F8240020B169
:202C5C002069216AB1EBC02F25D912F00BFB294600B13146081C1BD0BC4840F60901018048
:202C7C004580417B06F00F0221F00F010A434273017B05F00F0321F00F0143EA0102027344
:202C9C002946416013F068F9418811F4406FFBD084F8246025620FF023FECC4829460560CD
:202CBC00022012F06DF8022011F052FB112009F00BFE207818B96068483013F0BAFBC4485F
:202CDC00007810B90E2009F0FFFD94F8250020B184F82550052011F03BFBBE48E0612576C3
:202CFC00B4F9A800B4F9AA10884214BF022007200CF064FA02E0484613F060FF27F00807C4
:202D1C003CE720B1042011F023FB00206070656810F0F8FE38B12846ED696FF4807100228A
:202D3C004FF00073A847E06858B140460068006B8047E2686168801AC860000BC860002637
:202D5C00E660A54904F15400002212F09BF90221D4F89400217618B104F1D40013F07BFBFD
:202D7C0027F400670AE713F046FB064612F06AFAD4F88C100028894600F0828000297FD005
:202D9C009649042504F154000022257612F07AF9304613F013FF04F5C07013F026FB404636
:202DBC000068006B8047E0604FF0010884F80180284611F0E5FAD9F810006060D9F8100008
:202DDC00416AC90803D3036A29460022984740460EF01CFA606880F81580606807F006FD77
:202DFC006568D5F808A040F60A02D01F564600F1010C00E01E46736833B119888A4203D067
:202E1C00884218BF8C45F5D100217160727B08F00F0322F00F0213437373D9F80C2012887F
:202E3C00904224D06046904221D02B8E03B3696305F13002518095F83C0001F00F0320F037
:202E5C000F00034385F83C3095F83D0008F00F0320F00F00034385F83D307260707B01F047
:202E7C000F0520F00F0045EA0001717300E0E160504613F071F85146404611F081FF02E04C
:202E9C00304613F09BFE27F4806797E005F0E8FFD4F8940008B927F002078FE018240020A3
:202EBC008C0100104E4A116841F08001116020B1042011F04DFA0020607013F09CFA824697
:202EDC00D8F85400016804208847D0B1287DC0B1A068B0B18146D8F800002E69006B8047F6
:202EFC00A0EB09002861000B2861B04202D280194008286140F6C41181422CBFB0F5967F62
:202F1C002961504613F05AFE10F0FCFD80B1EE6928466FF4807100224FF00073B047D4F840
:202F3C008C00002808BF47F0020701D00DF094FE2846AD6900214FF080630A46A84727F03D
:202F5C0000573BE014100440051A01002835002013F051FAD4F8A46066B306F1280106C9B8
:202F7C000A234FF0E0450B40154008BF002B21D106F1280191E8000306F1280595E80600DD
:202F9C0006F1280322EA090221EA080183E8060013F014FEB16879B1B9F1000F08BFB8F1D6
:202FBC00000F09D03069B6F93010B5684B464246A84701E013F002FE27F4804727B104F1CD
:202FDC00D400394613F047FABDE8FC8700000460F28B010001B6000045AE000041520100F6
:202FFC00CC2108402DE9F04F0F46780689B027D5DFF8F8231078002113F020FE04001FD074
:20301C00DFF8EC0301688847054612F095FF6168884204BF40F2014013F0CCFD002020726E
:20303C00201D09F083FEDFF8CC130A6828469047204610F039FBFF223C21204613F0D2FD00
:20305C00B80604D50BF0D1FB87F02000CAE1F8070CD512F071FF30B100218160DFF898030D
:20307C00006800B1804787F00100BBE1380704D50BF06BFD87F00800B4E1F8060FD50021AE
:20309C00002200230691059204910393029101920091022013F08AFD87F01000A2E1B8074A
:2030BC000FD500210023069105910491039302910191009101223C2013F078FD87F002004E
:2030DC0090E179074FF01E08CC4EDFF834A340F1CF80CC480022002108920791007813F032
:2030FC00ADFD0446C8488178FF2904BF002011F087FBA07A12F074FD05469AF8000095F832
:20311C002E91002805F5947B69D0606D807A022818BF032807D130680D3013F043FD10B9BE
:20313C003068C11D07915946484613F037FDA0B3606D807C3368002818BF012804D11946EE
:20315C00584613F027FD04E05A464946184613F0C9FDFF2843D018FB00F8306840440622CB
:20317C005946C01D12F08CFD306810F80810404400F1010BC01D41F0020908900622616D4C
:20319C00C87A00F0010085F82E01606D00F10C0105F5947012F074FD21E05946484613F0C7
:2031BC00F5FCE0B130685A46494613F09BFDFF2815D018FB00F8306840440D3013F0F2FCAE
:2031DC0058B9306840440D3013F0ECFC002801BF30684044417F012901D149F0020905F184
:2031FC002C004B46017806914289120905920122698C0491C0880899029140080390CDF8A0
:20321C0000B0079801900020A97913F0CFFCD5F89C017E498842A8790CBF0021012113F075
:20323C00B1FC7B49AB790A6830204343134401225A70AB790C68434323449A70AB790C682A
:20325C0043432344DA700C68AA79231D424301249C54AA79096810FB02F0084400214171FA
:20327C000122A979072008F07CFE87F00400B9E038060FD500210023069105910491039382
:20329C0002910191009101223B2013F08FFC87F08000A7E0F8045DD55E4930680C680D30B4
:2032BC0013F080FC002844D13068C11D0D3013F065FC3EE0606D4178480704F13E0526D5F9
:2032DC00287802281EBF03286878012830D16978306804F1380213F005FD8146B9F1FF0FCA
:2032FC0015D0306818FB09F948440D3013F05AFC68B930684844C11D0D3013F03FFC3068C8
:20331C004844C11D062204F1380012F0B9FC2878022818BF03280BD130680D3013F042FC5D
:20333C0030B93068C11D062204F1300012F0A8FC2468002CBED13848DAF8042000784FF4A7
:20335C0080510FF017FE10B18E2013F013FC87F4805047E0B80505D512F0F4FE2F49012055
:20337C000860FEE7780504D50CF0C5FF87F4806038E0780405D5812013F0FCFB87F480402F
:20339C0030E0B9042DD5264C206810B1002011F037FA4FF0FF3020600020224C0CF000FBC2
:2033BC00216851F8202F684690471F494A6B086BC96A24681D4B019200900293ADF8101017
:2033DC006B461B4A1B491C4803921C4A079225681B4AA8471B49086004F0F8F987F4005002
:2033FC0000E0002009B0BDE8F08F00BFD50F0020A41C0020A81C0020480F0020680F00203F
:20341C00880E0020D70F0020780E00204DE50110B03500204C0F0020C70F00207C05204391
:20343C00380F0020200F0020141E0020355F0100455F010094220020280800201EFB00806F
:20345C00EC0A00201C0F00202DE9F84F0446002000900CB911F0D4F904F1500941F623005D
:20347C00D9F8006030800021022071808222707332736946204609F025FE08B9072007E2ED
:20349C00B0602061D9F80400407A0FF0A7FC253020760021207EB073F173D9F80400017DCA
:2034BC00022904BF002011F0ABF9D9F80400007D012802D10020307405E083280CBF0620AA
:2034DC00022030742020707404F1240BD9F80400DFF8C0834178480615D5D8F83C0041692C
:2034FC0008689BF80510401C01EB4101405A7082607DC10604D5E07F40F04000E07702E0FD
:20351C0040F04000607506F158050020287104F130009BF81A10890001F004012971B0662C
:20353C004FF01E0A607DC10645D506F130003062D9F8040041788A060BD5617D01F0FE01C5
:20355C006175407810F0030F03D1E07F00F0FE00E077607D13F00AFBA075421C307CC0F380
:20357C008001002392B200F0030013F0FBFAA0831E23A08BE27D00F5967100F59B7012FB65
:20359C0001F290FBF3F30A320AFB13006283C0B208B1C0F11E008018A183608380B2B1688E
:2035BC00A63001EB800131660220E871E17F41F00801E17713E000273762607D40F00100E7
:2035DC006075D9F804104A78510744BF40F002006075607D13F0CAFAA0753766EF71A17D1D
:2035FC00207D61F3050006F18801207508700322607D48708A7006F128079BF81A00800025
:20361C0000F0040040F0030088709BF81B20D20002F00802104388700020C870C6F89000E2
:20363C00BBF81C00C0F30B00ABF81C00D9F80410CA7D40EA0230ABF81C000022617D01F0EA
:20365C00FE01204613F08AFA40F61200B0830021F183D8F83400008880007062D8F8340070
:20367C00008800281ABF072139703870617DC8064CBF00200220787041F62401E07D78809A
:20369C00398100207881618BB06800EB8100B0630221822038757975002194F8210000F09A
:2036BC003F00B875F975D9F80400807D012818BF022805D100F07F00401E3876797606E0F2
:2036DC0083280CBF06200220387620207876D8F83C00416908689BF80510401C01EB4101DC
:2036FC00405A78830021F166D9F80400417811F0030F1FD013F02EFAF066D8F81800007830
:20371C00C107D8F8181009784CBF1F200F208A07D8F81810097848BF40F020004A07D8F851
:20373C001810097848BF40F040000A0748BF40F08000287600206876D9F80410564A897C5F
:20375C0001F0030169769BF81A00800000F00400014369769BF81B00C00000F0080040F09F
:20377C00100001436976107830B141F040016976287E00F0FE002876E07F13F0F7F984F840
:20379C002000204613F0E2F9E07FC1063BD5D9F8040094F820204178521C88074EBFD21E1F
:2037BC009BF81F001218387EC0F380010023D2B200F0030013F0D6F9ABF80000BBF8000065
:2037DC0000F59671C1F11E0291FBFAF10AFB012A8BF804A0D9F8042051788A074CBF0021B6
:2037FC004FF49B710818ABF80000ABF80200BBF800109BF80420B06B5218A63200EB8200B2
:20381C007067022001E000207067E87604F13000C6F8800006F18400D9F804104A78510780
:20383C0006D504F138020260687E40F0200006E01A490A6851680160687E00F0DF00687662
:20385C00A17F94F8200060F30501A17740F60B00B8840021F984D8F838000088800070650F
:20387C00D8F83800008800281ABF0721297028700221697094F845006880D9F804104878E8
:20389C00810744BF01206880009807F095FF0020BDE8F28F748D0100880E00206C0F0020BC
:2038BC002DE9F84F0546DFF80804DFF808640278002A84B048D0052A56D0062A58D0072A50
:2038DC0018BF082A00F0D1800A2A00F0C381112A40F0E481DFF8E0331878002113F0AEF905
:2038FC0004001EBF606D407810F00C0F2CD0216DC0064CBF886CC86E0622016801F1080516
:20391C00A91C684612F0BCF9287800F00F0105291AD16946C0F3801013F040F9002813D06F
:20393C003168684613F036F90546316804F1380013F030F985420DD0606D4178C80604D4E5
:20395C0040F2014013F036F9AEE1607B40F002006073A9E133681E20454358190622694604
:20397C00C01D12F08DF99FE1012013F0EBF89BE1DFF84853286813F0E1F80400F7D0207981
:20399C000328F4D1207A00F00F01072938D1DFF8300300684169497A4A1E11425ED0617AA5
:2039BC0004F10A035A5C02F03F02252A56DBA17A8A09012A52D111F03F0F4FD0007C12F098
:2039DC000FF9E17ACA074CBF04F1110204F10B028B0748BF921D0B0748BF921CC90648BF9D
:2039FC00D21C1621127852094A43B6498B180A31EB608A5A428699898186DA89C2862DE05F
:203A1C0000F00F00082829D1A17A880926D129B3AB480168087C12F0E3F8E17A07468807EE
:203A3C001CD5062201F001015143601800F10C01684612F025F9207AC009FF280ED069466F
:203A5C0013F0ACF850B1306800F10D01684613F071F818B90521384613F0D0F820790328ED
:203A7C0002D0002010F0CCFE14E1DFF85C9299F802000024FF2821D012F0B2F8804608F17A
:203A9C006C07786813F05AF8029029460279032A01D0080012D00298826813788DF800303A
:203ABC0003F0030001909DF80000830604D50124019820B97868EEE00800F9D0F4E05578B5
:203ADC0002F1020A2CB31AF8010B804A13680390302098F806E003F10A0C10FB0EFE0123EB
:203AFC000CF80E30002998F806E0136810FB0EFE9E44039B03F01F038EF81C3098F806300A
:203B1C00126810FB03F01044039AC2F3811242771BD10198032808F2171B1BD0B5B1387842
:203B3C0068B108F1F400017801290FD1604A1178072904D0082904BFC078012806D13D211F
:203B5C0001208BF801108BF80000ADE060490A78012AFAD098F8940090B32D1FEDB29DF87D
:203B7C00001053462A4640460BF070FC00281EBF58490878002809D101203D218BF80000F9
:203B9C008BF80110306812F0D1FF8DE0524801688847064698F80610D9F804204FF4D07062
:203BBC0041435018002280F8412108F59E700168807949080BF030FF48490A6830469047C9
:203BDC000298002181600198032819D04448416909788A0709D541690878C1074CBFE81C59
:203BFC0028461AF80000387201E0812139722A460198C3B299F80200514605F085FA21E034
:203C1C009AF800001CB11B2804BF022D01251C2803D234490B5C9D4206D08BF8020007216F
:203C3C00404612F0E3FF0AE02148017808295146404602D112F0DBFB01E000F059F8504681
:203C5C000EF0FCF9786812F06DFF0299404612F065FF29E0244C207830B3244D286812F089
:203C7C006DFF08B3017903291ED1017A8A0611D5807AE178C0F38112914202BF217900F0C4
:203C9C001F00814206D1A078002801BF607800280121A170286812F045FF05E0002010F041
:203CBC00AFFD862012F0C2FF05B0BDE8F08F00BFC80F0020680F0020D50F0020BC0A0020C3
:203CDC00540F0020E0070020780E0020B0350020D20F002035360020A41C0020A81C002043
:203CFC00748D0100008E010060350020AC0C00202DE9F043044685B0084611F801CBDFF8C8
:203D1C00A483DFF8A4333022BCF1030F4FF0000904F5A47704F1660504F1F40600F0C380C3
:203D3C00BCF1070F00F08081BCF10F0F0CD0BCF1110F00F02481BCF11A0F00F03681BCF180
:203D5C001B0F00F061818EE1707A820703D40F2184F8191159E008784A7800EB02233B8076
:203D7C008878CA7800EB02237B8008794A7900EB0223BB808879CA7900EB0223FB80087AFA
:203D9C0038724A7A887A02EB00237B81C87A0A7B00EB0223BB81487B8A7B00EB0223FB8124
:203DBC00C87B0A7C00EB02233B82487C8A7C00EB02237B82C87C0A7D00EB0223BB82487D9D
:203DDC00897D00EB0122B948FA8201788A0658BF4FF01A0913D504F5AA700490798903918F
:203DFC00387A029021890191F8880090BB887A883988204612F08EFEC8B14FF01E09707A54
:203E1C00410706D40F2084F81901204612F07EFEF0E04A460F21204612F074FEF888009041
:203E3C00BB887A88A17948460EF00CF8E9E004F1860079888180BA88C2800222F988018186
:203E5C000270A0F80290A18EC91DE983628E8188B1EB520F02BFC188A28E914202BF0089DC
:203E7C00E18EB0EB111F1CD0287C012804BF687C0F2809D0687D00281CBF687C1A2803D09B
:203E9C000F21A976FE2176E0FC21204612F0AEFEF8880090BB887A883988A07912F02EFEB4
:203EBC00AFE0102167E0707AC20709D431781A200129707002D1FF220D213BE00D215AE0BD
:203EDC0085F8009085F8069001233371082204F1B00012F00FFE0146022204F1B80012F0E6
:203EFC0009FE04F1A80801460822404612F002FE07460821404612F0F9FD04F19C0804224E
:203F1C003946404612F0F6FD0421404612F0EEFD04F1A00012F0E6FD04F1980012F0DEFD0F
:203F3C006348018841F0800101803078012805D1FF220421204612F0CDFD62E06E7C0F2E76
:203F5C0018BF142E04D00E2E1CBF0C2E1A2E11D12F7C204612F0BAFD0421204612F046FE42
:203F7C00012F05D11A2EAE7614BFFD21FB2102E0314600E00421204612F038FE41E00E7803
:203F9C003E761A2E497879766DD11868A679811D564301F806901968A37912FB03F20A44C9
:203FBC0082F80990A179787E56E0A77918680E785743074406F01F0117F8250FB60938B180
:203FDC007878F040C00703D594F89601042805D120221A21204612F095FD12E0F970A179F5
:203FFC00186812FB01F28118204681F82760002107F008FA28B998F800004FF4804108F09F
:20401C00E7F84FF0010932E0A179186851430144888908B981F80690A179186812FB01F25C
:20403C00811881F80990ECE709780F2917D01A2919D1A1791868514301441A2081F806905D
:20405C00A1791B6812FB01F2991881F80990F17A01F0FB01F172A1790AF0D4FED1E7717AA0
:20407C0001F0FD0171720146204612F02BFD687C1A2812D1A87C17281CBF1028FC280CD1FB
:20409C002E7C204612F022FD012E03BF1A20A876FB211A21204612F0A9FD484605B0BDE83D
:2040BC00F08300BFC70F0020B0350020200E00209C0F00202DE9FE4F0422FF2101A811F04B
:2040DC00E9FDDFF8541388780024FF2800F0A28111F086FD054605F217100178012908BFEB
:2040FC00417800F0EB8005F1740005F59276817B022904BF05F174018C7395F89201022886
:20411C0005F1740008BF85F89241017F022904BF05F174010C77F18911B1307B08F058F877
:20413C006889BE4F2881FB7997F80AC03A7BF97A787B9C4494448C4405F58D790CEB00084D
:20415C00B9F804E0B9F800C00EF1010EC444A9F804E0A9F800C0B9F802E097F80AC0F4441D
:20417C00A9F802C0D6F800C0BCF1000F29D0DFF8B0E2DEF800E00EF10E0ACDF800A04FF0A3
:20419C001C0A95F806B01AFB0BFADDF800B01BF80AA03CF81AB0C3442CF81AB00EF10E0A34
:2041BC0095F806B04FF01C0E1EFB0BFB1AF80BA00CEB4A0C97F80AA0BCF84AE0F244ACF81D
:2041DC004AA0002B08BF0029DFF858A203D1002A08BF00282BD02989E8892C744118287F42
:2041FC00A981012804BF688CE883A9790122072007F0B7FEA346787878B1012105F1740286
:20421C0029779078002802BF05F17401887B002803D1087F08B9688CE883307D002855D0E6
:20423C00022804BFF87A00284CD134754EE0A979072007F096FEEC83B87A40B1297F2C7439
:20425C0001294FF0010B27D1688CE88324E0B9F80600401CA9F806004FF0020B287CD8B13F
:20427C00DAF80010AB7995F82EC001F114026969490040F6C4105B0110FB0C1101F5F661A3
:20429C00D150A879DAF8001001EB4010C17C01F0F00141F00401C174A8892989814206D09C
:2042BC008842A8D2081A41F2AB029042A3DA287C08B1052901D0082100E03E21284612F019
:2042DC009DFCA7E0787A08B102213175F87BC1070DD529683869C86000F59070C860AA7977
:2042FC00DAF8000000F1140152018C5013E0DAF80010AB7901F114025B01D05830614848F5
:20431C00AB7901681C2001F1080243432968D058C860EC832C77444A50690078810702D525
:20433C00B87B802800D1812005F174063070284612F075F8284608F055FD02281BD1F079F0
:20435C00022805DB01AA394928460CF0FFFE0446284612F0B3FB01285CD020000DD0224681
:20437C0001A928460DF090FA38B9284608F03AFD012802D14EE001284CD00121284612F0F3
:20439C0099FB284612F092FBFEF76AF9012841D028460CF055F800F00FFD254FB9883868D6
:2043BC0010B1AA79914203D04FF6FD70814231D12049087B11F0F8FD04002BD084F800B0D3
:2043DC00A8791D4960800A68A879115C217105F5C9721079607196F90010A171A4F8088064
:2043FC00B9F80200608111F0A7FD050005D1FF204FF0FF312073216109E02878207312F0CC
:20441C0051FB0146A86812F049FB80082061204639688847BDE8F78F780E0020980C002023
:20443C00980E00209C0E0020748D0100AC1F0020800E0020A4220020C4350020DFF87403E8
:20445C000278112A00D070472DE9F84FDFF868231078002112F0F2FB04000AD1002010F0AE
:20447C00CFF9002010F0CCF9BDE8F24FFF2012F0DDBB04F14C0999F8000008B90121E172C3
:20449C00401CD9F8083089F800005978CA0642D4E27DD9F80460C7B297423DD2C0B20128D3
:2044BC0008BF032A0DD112F0FDFA217E00F001004118491CC8B22828B17319DBC91EB173DA
:2044DC0016E05A7AB07B277E0121A0F1250301FA03F3A7F125008140194322EA010101F081
:2044FC00070141F02401B173242904BF2720B073B068A18B00EB8100B060607DC1060AD561
:20451C00628B99F80010A08B00FB1121B068A63100EB810030664BE104F1280706F19008C9
:20453C0006F173054FF0000A50D1A17F6975E07FA875D9F808205278930710D5E27FD30690
:20455C0004D5C91E697500F0EF00A875C6F874A085F800A00022A97D01F0FE0123E19106E3
:20457C0008D4F88B00B1F87E2876F88B00B1386AC8F80000D9F808004178CA070DD5F88B9D
:20459C0000281CBF386A002807D0C8F80000B97EF88B814238BF08462876E07FC1060CD534
:2045BC00B06B397800EB8100B063A18CA63100EB810070670220287003E0C6F874A085F861
:2045DC0000A00022E17F01F0FC01ECE0CB071ED5687D811E697501F03F01A87D00F0F7007F
:2045FC00A8758207697504D4891D697540F00200A875A87D410605D56A7D511E697500F006
:20461C00BF00A875C8F800A085F818A0D0E0801AC0B20090880740F183800098012806F146
:20463C00400B3FD1B06BA18C00EB8100B063A07F00F03F00A0776875E17FA975D9F8082083
:20465C0053785A0704D5801F687501F0FD01A9750023687DF97E00F03F0042189BF8000015
:20467C00521CC0F3800192B200F0030012F07AFA00F59B70A0841E21A08C90FBF1F18AB297
:20469C00A97D01F0FE01204612F068FA85F800A0F88B00B1F87E2876F88B00B1386AC8F823
:2046BC00000085E00228B06BA18C00EB8100B06326D1E07FC10706D5687D811F6975A87D07
:2046DC0000F0FE00A8750023687DF97E00F03F0042189BF80000521CC0F3800192B200F042
:2046FC00030012F03FFA00F59B70A0840022A97D01F0FE01204612F031FA787FABF81A00BD
:20471C00797F0098491C081AC0B201281CDDA28CB16BA63201EB820171670221297014E0B9
:20473C00B06BA18C00EB8100B063797F0098081AE17FCA06C0B207D5A28CB16BA63201EB58
:20475C00820171670221297090B3D8F8003097F81BC0E27FA17F6344C8F8003022F0010846
:20477C00D9F808205278530748BF28F00208920748BF28F00808012807D1387F2876C6F8FB
:20479C0074A028F0100885F800A001F0C006404612F0ECF900F03F003043687585F81680E6
:2047BC00002208F0FC012046BDE8F84F12F0D6B9BDE8F18FC80F0020D50F00202DE9F84372
:2047DC009D4C9E499E4E20700A22002008600D239C484FF4057102704380818084B09A4AA2
:2047FC009A48106037789A480770FF2F7178417008BFFF29B2788270F378C37035790571AE
:20481C007679467114D1FF2A08BFFF2B10D1FF2D08BFFF2E0CD18F490A7802704B784370B7
:20483C008A788270CB78C3700A7902714979417189490278894D8A4E8A4F0A7043784B70C5
:20485C0082788A70C378CB7002790A714079864A4871FF2028706870A870E8702871687129
:20487C00002082490880F06B8149407808708149F06B0078087013887F4880490380F06B36
:20489C00C06C08607E49F06B90F83C0008707D49F06B90F83D000870F06B406901797A486C
:2048BC004A1E0270F06B7949C0783870F06B8069086008B90FF0A4FFF06B7549C06908604C
:2048DC0008B90FF09DFFF06B416D72480C2211F0D7F912F0DFF8F06B6F49006A086008B91F
:2048FC000FF08EFFF06BDFF8B481406AC8F8000008B90FF085FFF06B6949806A086008B9DB
:20491C000FF07EFFF06B6749C06D00283CD001220A75F06BC06D02681378C3F3400028B1A5
:20493C00C3F3C00000280CBF01200220487500208860C8600861F06BC06D426890780870A7
:20495C00F06BC06D4268D0784870F06BC06D426813788B70F06BC06D42685078C870F06BC4
:20497C00C06D426810790871F06BC06D426850794871F06BC06D426890798871F06BC06DD2
:20499C004268D079C87101E000220A7500F0B8FD07280AD105F080FD20784FF4804107F099
:2049BC0017FC00200FF02CFF43E03F480168884781460BF08BFBD8F800000168884768469E
:2049DC0011F002FBD8F8002004208DF80000694652F8043F00209847344908600DF0F2FC19
:2049FC00F068334A01883878324B014311804846196888470C21304811F015FD284612F035
:204A1C0045F812F03FF82D4800214FF6FF7201608280F06B90F858102948006811F05CFADA
:204A3C000121FF2011F0F9FC20784FF4005107F0CFFB05B0BDE8F083C70F0020380F00200C
:204A5C00D04F0050700E00203C0F0020B63F0050400E0020E8120050500E0020480E0020D1
:204A7C00748D0100C40F0020822200209E0F0020C60F0020D40F002022360020B835002017
:204A9C003336002034360020CB0F0020200F0020240F00206C350020280F00202C0F0020D8
:204ABC00300F0020C8340020A41C0020BC350020A00F0020A81C0020FC0D0020800E0020E4
:204ADC00CC3500202DE9F84F05004AD0AA480078092818BF0A2804D00B281CBF0C280D282E
:204AFC0001D1212046E1A878002112F0A7F8040008BF4220F6D0A14EA9789F4A3170107869
:204B1C0010B9A8789E49087004F14807F868417801F01201022902BF786900280C2012D0CD
:204B3C00607AF0B1A07B012804D1B5F8030008B1812816DA6878402813DA204611F09EFF8A
:204B5C00B86808B9072015E1BD61287801281BD1A07B00281CBF0128042815D189480078C6
:204B7C0008B9122006E188494A78824208BF0920F8D004F1220004F13801427F802005F095
:204B9C00FBFB08B10B20F5E0687808B91120F1E02878DFF8F881DFF8F8B1DFF8F8A101289E
:204BBC0040F09380207A0021012821734FF00A0911D19AF8000040210EF0DCFFB5F803006E
:204BDC0009FB00F1402011F055FF0100DFD1B96968794871CDE001202072E172617308F023
:204BFC0049F86060DBF8000080476B4A0146106802E06268426000680028FAD10846D8F8C3
:204C1C00001088476168654848610021307811F004FC31780122112007F0A3F9F868417807
:204C3C00C80605D5204601F0FBF801000BD0A1E0002060840DF0AEF984F821002046FEF769
:204C5C0003FC0100F3D1F8684178C8071CD504F14206B18800291CBF3868002814D03278CB
:204C7C008A4211D20F2011F001FF68B1F86801788DF80010B088ADF801000F2031788DF877
:204C9C000310694611F0EEFE3B4E3078002870D14349087800281EBFF868417811F0030F72
:204CBC0003D04048006811F0D9FE1120307001212172B5F8030009FB00F1402011F0DAFED9
:204CDC00010057D100F078F853E0207A002851D0DBF80000804705463078012111F09DFBD1
:204CFC009AF8000040210EF045FF00202E4920720A68367811460B68187A002802BF586D10
:204D1C000378B3421ED089689142F4D111F04AFA012824D111F010F9616888421FD10FF0A1
:204D3C00E7FA40F2014011F045FF20492048086001219AF8000007F04BFAD8F80010284647
:204D5C00884716E01B4E30780128DFDD08460FF0B7FA11F021F93078411E3170D6E7204698
:204D7C0011F078FED8F800102846884720460EF09BFC0020BDE8F28FC80F0020D60F002046
:204D9C00D50F0020D40F0020780E0020A81C0020A41C0020C70F00204C0F0020A56C000004
:204DBC00880E00206C0F0020C0350020480F0020B9590000323600202DE9FE4F9D4E756835
:204DDC001DB9BDE8F74F11F041BE2878DFF868829A4FDFF86C9201281CBF0228042805D0A8
:204DFC00402818BF802800F08D801BE111F0DAF90028FAD0287805F09DF9824611F022FEDD
:204E1C00044699F80100002853D000F0EBFE10F0E7FE0546286800900146D1F804B0A4B10D
:204E3C00504607F069FB02280FD09AF800100129DBD128B911F036FE00F5E8504C30A06025
:204E5C000120B070112139705AE00098017880290CD108207B4938700A78DBF81400012A21
:204E7C001ABFD8F82410097801211CE007203870A87911F039F80446207BC1070AD5A879CB
:204E9C0010F0AEFE052111F0B9FE207B00F0FE002073CCE06B480178DBF8140001291CBF8C
:204EBC00D8F824104978C172A87989F802000098B4E0BAF1000F98D09AF80000554507D1E8
:204EDC00012801D1E4B9B2E000200FF099FC17E001288AD1002CF6D011F0E4FD0146A0683A
:204EFC0001F5C241A83110F03DF928B911F0DAFD00F5E8504C30A060112038700121B17010
:204F1C0050468BE099F80100002841F64C5B6CD000F068FE10F064FE044620680190D0F8BD
:204F3C0004A099F8020010F05BFE02902878402811D1A07910F0D8FF0546287BC1070AD5C4
:204F5C00A07910F04DFE052111F058FE287B00F0FE0028736BE011F02BF910F0070F1FD0B3
:204F7C00B07805F0E7F8009011F06CFD050017D00199009807F0C0FA022811D000990A782A
:204F9C00012A0AD118B911F08DFD5844A8601120387001210098B17040E000200FF030FCD0
:204FBC000298A0421FD0019926480A78802A0BD10821397000780128DAF814001ABFD8F858
:204FDC002410097801210AE007223A7000780128DAF814000EBF0121D8F824104978C172B3
:204FFC00A07989F80200019818E011F0E1F810F0070F1CD0B07805F09DF8054611F022FD6F
:20501C0004462878012812D18CB111F04BFD5844A060012111203870B1702846BDE8FE4FE0
:20503C0006F068BABDE8FE4F00200FF0E9BBBDE8F78F00BF78350020748D0100C80F0020D7
:20505C00780E0020CC0F00202DE9F04F0746F88916468A46ADF1440DC01D80B205460BF000
:20507C00B9F98F4CFF280BD1284605F0F5F8854204DD641C207800B905200EE1012000E0A6
:20509C0000206178D9B916B1022E18D1B8B1387AFE88BD888DF82C000023009309AAADF8E4
:2050BC002A60E18E94F83300ADF82850032305F03DFF9DF834003874BDF83060BE81BD8969
:2050DC0055B3FE8946B3AD1B4FF000091FFA85F84D463A7C761B202ED4BFB6B22026E068D5
:2050FC0008EB050189B2334601EB423101AA11F0EBF80AEB050101A832460FF0D1FE58B9FE
:20511C00AD19FE89ADB2AE42E3DCB9F1010F1CBF4846B88140F0BA8094F83310E58EE068C8
:20513C0001AA04238846490311F0CEF8019800F0FF007E2806D140467C210FF079F801986F
:20515C0000F0FF007C2840F0A580F88942F20102C11D8EB2A9198A4240F39A80F9883A7A65
:20517C00C1F301238DF83910B98843EA82038DF838308A1007468DF83A200423C0F3851256
:20519C0001F0030142EA81128DF83B2010FB03F1FA1D01F0FC017B1990B28DF83C101FFA9B
:2051BC0083FB0D282BDB50463946002210F0D6FF024605210EA810F0D1FF9DF83C103B46B8
:2051DC0000F03F07524641EAA011B8008DF83C1040F0020096278DF83D0029468DF83E702D
:2051FC0040460DF0A1FB074659460EAA0723404667700DF099FB384360704DD135E004F145
:20521C00240051463A4608F0D5FE0EA90A68381900F124094846097902607B1D0171002236
:20523C0004F1240099B210F099FF9DF83C10962300F03F078DF83E3041EAA011B8008DF87A
:20525C003C10334640F002000EAF49468DF83D003A68B8790A60BA88887140468A8004F130
:20527C00240229460DF060FB6070E18EAD194FEA8807AAB28919E18607EBC8010919A1F87D
:20529C004C2048B1404659460DF0D6F9607803E0052000E001206070C0B211B0BDE8F08F94
:2052BC00B41D00202DE9F0470D4629048F4EDFF8408240F1F1808F4F38780AF03FFF040032
:2052DC0018D021780120B02917D0B12908D0C22900F0B580D02904BF2046FCF7B7FAD1E017
:2052FC00207920B92289E1886088FBF718FE204610F094F885F40040F5E02179387A012926
:20531C0010D009294DD01E2900F08D807D2908BF002806D16088FCF726FA01466088FCF775
:20533C00DFF986E00028FCD1207AB4F80290082835D14846FCF717FA02280FD003282ED14B
:20535C00002204214846FCF7DFF80246B86900281CBF4368002B22D004211EE000221021E8
:20537C004846FCF7D1F88246484611F0B7FC60B198F8001039B9811D4079012200F00100AF
:20539C0011F05CFB01E001203070B86900281CBF4368002B03D05246052148469847608817
:2053BC0005E0002845D1617860881A2902D1FCF776F93EE0FCF7D7F9022819D0032838D14D
:2053DC0020896688012804BF6089032806D1E068827804213046FCF797F800E01820B969AA
:2053FC0000291CBF4B68002B23D00246042117E0218966880120012904BF6189032907D1C4
:20541C00E268917821B9012210213046FCF77CF8B96900291CBF4B68002B0AD002460521C6
:20543C003046984705E0787A18B9608800210AF087F9217904F1080011F0FCFA57E7A078EC
:20545C0010BB012139742022E11C07F1880010F017FC202204F1230107F1A80010F010FCBD
:20547C00202204F1430107F1C80010F009FCB86900281CBF4368002B06D0627806210020DF
:20549C00984701E00028D9D11B480078FF2802D0214603F079FB2DE7690716D5174A106874
:2054BC0080B1FCF76AF904000CD0E07A50B90121E1726268A17A2089FBF76FFF606808B122
:2054DC0010F06AFD85F004000DE028070AD53178012902BF98F80000002808F001F985F022
:2054FC00080000E00020BDE8F08700BF38360020AA0F0020FC1A002006240020D43500209D
:20551C0038B57A4D687910F03FFD7949002808606ED00022026002730868C2610262A879FD
:20553C0010F032FD73490028086061D000220260C27200200A681074052308684374002264
:20555C0009684A61E87A10F01FFD6B49002808604ED06A4C21782878C91C10FB01F080B231
:20557C0010F012FD66490028886041D02078002873D0698811FB00F080B210F005FD614A61
:20559C000028506034D060482278017811FB02F080B210F0F9FC5D490028086028D00025E0
:2055BC000AE0E8B210F0A0FC00214180816001800223037101736D1C2078E9B28142F0D31C
:2055DC0010F0E2FC52490028086011D02078400010F0DAFC4F490028086009D020781C2141
:2055FC0010FB01F080B210F0CFFC4B4A0028106075D02078400110F0C7FC48490028086067
:20561C006DD02078000110F0BFFC45490028086065D02078000110F0B7FC42490028086023
:20563C005DD02078302510FB05F080B210F0ACFC3D490028086052D0207810FB05F080B258
:20565C0010F0A2FC39490028086048D0207810F09BFC37490028086041D0364C364D217878
:20567C00287800EB4100C000103080B210F08CFC32490028086032D000F108014160287840
:20569C00227800EB4200C000103080B210F07CFC2B49086018B300F1080141601E21207864
:2056BC00401C10FB01F080B210F06EFC254A1060A8B1082010F068FC234C206078B10620D8
:2056DC0010F062FC216808602168086838B100204860062010F058FC1C49086008B9072086
:2056FC0032BD10F096FE00B1002032BDA4220020500F0020540F0020440F0020D40F0020ED
:20571C0078350020780E002004240020B4350020340F0020AC350020980E00209C0E0020B5
:20573C00A00E0020A40E0020A80E0020B0350020C435002034360020333600206C0F00200B
:20575C00700F0020680F0020CC350020400F0020F8B5144600254FF480678D4EC21B84B025
:20577C0006F188032CD0921E31D0521E37D0521E3CD0521E41D0521E45D0521E62D0921E93
:20579C0065D0D21E00F09680521E00F0A180921E00F0AA80521E65D0521E00F0AC80521ED6
:2057BC0000F0BA80521E00F0BD80521E32D0521E41D0D21E00F0C880921E00F0CC80DAE045
:2057DC00012905D12078022802DC7070DDE0012940F0CF8020780128FADCB070D5E0012931
:2057FC0069D1207805286EDAF070CEE0012962D1207801285FDC3073C7E010295BD11022FE
:20581C002146644814E0012955D12078012852DC3071BAE001294ED1207801284BDC002892
:20583C007071F6D001203074602206F12801184610F026FAA9E001293DD1207801283ADC28
:20585C00B072A2E0012936D1207870739DE0002931D111F00FFA10B9FBF7AFFC1DE00120A6
:20587C00F07492E0072926D10622611C02A80FF0F7FF00950023217801AA02A807F06AFBC9
:20589C00B0B9B07A10B911F0F5F910B1B07A012808D19DF80400FBF7A1FC054650200FF0D2
:2058BC0011FD1EE0316A9DF80420012088546CE034256AE001295CD1F17B2078022903D027
:2058DC00C11F0A2902D354E0102852D1B0735CE001294ED1B17C2078B074002908BF01288B
:2058FC0053D1FBF716FC50E0012942D1207803283FDC707449E001293BD12078022838DC00
:20591C00002836D0F073022803BF1020B0730120002011F08BF838E001292AD120780FF002
:20593C00FDFD32E0707920BB602907D10CB360222146184610F0A4F9012003E0012918D160
:20595C00BCB12078307420E0012912D18CB120781149087019E061B911F08CF930B9FBF75A
:20597C00D0FC054650200FF0ADFC0EE0012030750BE0182509E00F2806DA022904D1218857
:20599C000DF0BEFB054600E00225284605B0F0BDFC1A002094330020373600202DE9F84F0C
:2059BC00DFF8249299F80000002111F047F9040004F1500602D10EF023FFF6E0207A30B9B0
:2059DC00204611F047F820460DF06EFE1AE0217B7E4F491C217330694079B8B1C9B28142E1
:2059FC0014D1387840210EF0C5F800202072204611F030F820460DF057FEFF2243212046F6
:205A1C0011F0F0F8BDE8F14FFFF7D6B904F14508002088F807000B2510F05BFC7168D1F805
:205A3C000320D4F810E022F07F4240F6C41303FB02EE90FBF5F50B2202FB1500D6F800C05B
:205A5C0080B24FF47A6148431EFA80F0CCF808003368986820615E48017802290BDB5D480A
:205A7C000068816800680A68006911690FF07AFB08B10BF03BFB70684178CA0604F1220521
:205A9C0018D5A07B012809D100212172204610F0E1FF3878022106F09BFB71E0306890F815
:205ABC00631001F0E00141F0860180F863104A49416665E0376807F1020B0021ABF80010EB
:205ADC00407A0DF08BF925302076207E8BF80C00617DC80605D5618BB868A63100EB810082
:205AFC00386607F1730A207D8AF815000020617D8AF816108AF81800C7F890002888401CA8
:205B1C00288080B20CF046FA84F821000022617D01F0FE01204611F021F80020ABF81C0067
:205B3C00E17DABF82810ABF8300007F13E0094F8211001F03F010170628BB96801EB82012B
:205B5C00B9630021018298F80020828371684A78910709D5AA886A80A17F01F03F0141F005
:205B7C008001A17701218183E07FC10608D56988B86BA63100EB8100786702218AF800105C
:205B9C00164A107888B1287F022818BF03280CD1134F38680D3011F005F830B93868C11D74
:205BBC00062204F1300010F06BF8FFF705F94CB17068017E480605D54946BDE8F44F03200F
:205BDC0010F050BFBDE8F18FD50F0020C70F002032360020C035002000204E00880E0020BA
:205BFC00680F00202DE9FE4F884C617811B900200EF006FE10F056FF06464FF0000806F612
:205C1C00C4160027824DDFF80C9211E038460FF0E7FF417951B12A68817902F8081008F17C
:205C3C0001015FFA81F8314610F0FCFE7F1CFFB299F800008742E9DB6178884505D00020FE
:205C5C000EF0DEFD822010F0F1FF607801281ED1002701E07F1CFFB299F80000874210DA35
:205C7C0038460FF0BDFF064670790028F2D02968B0790A7890421CBF00200EF0C1FDB079C2
:205C9C00C2E000200EF0BCFD822010F0CFFF617828680AF081FE286800780FF0A1FF002650
:205CBC000068D0F804A04FF0010902E03E4609F10109771CC1450BDA286810F809000FF023
:205CDC008FFF00684068DAF8081082689142EDD0F6B2002E1CBFF8B2002803D1286890F837
:205CFC0000B019E0286890F800B001224FF4D0710FE0636803F5B176835C11FB03F901FBB4
:205D1C000BFE36F809C036F80E60B44538BF9B46521CFBB29A42ECDB4FF6FF7010F07EFE0C
:205D3C00064658460FF05CFF3B490068D0F804A00868D94630F8192060684FF4D07300F17C
:205D5C000E0103FB09F3C85AB2EBD00F55D2720840F6C410424300920027304A01900292F8
:205D7C0018E058460FF03CFF01680A78802A03D1DAF81410009A4A6101680B78402B08D163
:205D9C00029980790A6802EB4011009800F5A060C8617F1C474530DA2868C05D8345F8D07F
:205DBC0001464FF4D073594363685A1803F5B173D289595A53088B4202D2521A9045E8DAF8
:205DDC000FF00EFF00684268DAF808009168019B06EBD6725208A1F6C41103FB02000FF01C
:205DFC00C1F90028BDD00C48006830F81910491C20F81910286810F807B00748026800213C
:205E1C005B4622F813105846BDE8FE8F780E0020340F0020D40F0020AC3500209C0E0020E1
:205E3C002DE9FC470546002000900DB90EF0E8FC05F1500A6946DAF80060284607F042F979
:205E5C0008B90720EBE00024DFF8D881DFF8D891DAF804104A7A1820604301233718A34004
:205E7C001A4209D0A97B39F811003880002118F80420BA73F97302E040F6010038800021D3
:205E9C00798007F118007860387B00F0EF00387340F080003873A97B01290ED141F2883055
:205EBC00B860397B01F0F00141F005013973787B00F0F00040F0020017E0002C0CBF02211F
:205EDC00002100F0F0000843387324B910F0EAFD00F57A6000E00020B860022C797B0CBF17
:205EFC000120022001F0F00108437873641C06F14800386106F16801032C7961A8DBA87BC4
:205F1C000024012805D1766310F0CCFD00F57A6001E0B0687463286110F01CFEB0644348BF
:205F3C0081690978CA07816909784CBF1F220F228B078169097848BF42F020024B0781698D
:205F5C00087848BF42F04002010706F14C0148BF42F080020A704C70DAF80420907C00F0FB
:205F7C00030005F13E024870137863F38200487052788C7062F3C3004870CC7040F01000E7
:205F9C004870346505F13800F0657465A87B012818BF042819D0DAF8080038B1B0F8030092
:205FBC008870DAF80820D2F805003065DAF80C0038B1B0F80300C870DAF80C20D2F80500F8
:205FDC0070651B4802685068F06505F13000B065184AC87D184B00F0EF00C87540F08000E5
:205FFC00C87500F0F00040F00600C8757266187838B148780A7840F0400002F0FE02487048
:20601C000A700E4A937848785A064CBF40F0200000F0DF004870009805F0CEFB0020BDE86A
:20603C00F68700BF506E0210F46B0210748D01006C0F002000204E00880E0020C00C00201A
:20605C002DE9F04380490468804E824D0A68607D8846ADF1140D401E0B2800F28A80DFE8D9
:20607C0000F09906097B6009350C14D11A142169886804E02069816809E02169C868096850
:20609C000CF0FEFF0DF01EFEDBE02069C168022200200A70D5E02169487C01280FD0C8686C
:2060BC0009680CF0EDFF054620690168C0684A6A406800218018401C09F0C1FB04E0C868CC
:2060DC0009680FF049FB0546284642E020694FF080590168D9F80072CA68786D00920A69AC
:2060FC0001924A6A5A4F02928B684A68844630463946E047002809F5007118BF6FF00500A3
:20611C0040F09F80206902680C689168206A0091D1680191516A0291CDF80C8053683A46F4
:20613C007DE02169087B01280FD0886809680CF0A7FF05462069016880684A6A406800212C
:20615C008018401C09F07BFB04E0886809680FF003FB0546284695E7206941684968CA7F1D
:20617C0012F0070F05D1097831F07F0701D1C90902D24FF0FF3064E04FF080590368D9F86F
:20619C000002596AC06D0091CDF804805A68996A9B6845E04FF080592169D9F800224868E5
:2061BC000968526C4068496A904709F50076002818BF6FF0040044D1216930680A68C06AB9
:2061DC001169526A0346284698473068406A80470828FAD0306840688047062818BF6FF069
:2061FC0003002ED12069036837689968386A0091D9680191596A0291CDF80C80DA6A996AF9
:20621C005B680DE020694FF080590168D9F800724A6AF86D0092CDF804808B684A68314655
:20623C0004462846A047D9F8B001006A014613208847D9F8B00100690146132088476FF0DB
:20625C001F0005B0BDE8F0830836002060620240C0620240006202402DE9F04F824C4FF06A
:20627C00FF0A00254FF0100BADF1240D84F834A004F1300984F832A065E00C2015FB0096C8
:20629C00E068690306AA042310F01EF806F116079DF818009DF8193038700698F375C0F341
:2062BC008541032903D09621B1EB106F38D1C0F30140F8703878FF2830D0FE282ED07E2825
:2062DC002CD007A80DF05AF9E06869034FF088524FF400530FF0F8FF64484FF4005650F8C1
:2062FC00041D361FB6B2B1F1FF3F06F1885201D1032EF4D810684FF00108414600F0FF03EB
:20631C00FF2B18BF8846491C000A0529F6DB106007980FF051FA4644FE8001E0A7F806B08D
:20633C0038787C280BD0782809D0702804D0FE2808BF84F8325004E084F8345001E084F801
:20635C0033506D1CEDB2E078A84296DC94F83310FF2920D194F83420FF2A15D194F832200D
:20637C000025FF2A18D0521C92FBF0F14143521A91B28A0002EBC1024A44978B002F08BFDC
:20639C0084F832A003D00A4684F833200225214691F8331000E00125FF2910D1002684F896
:2063BC003360304606F0D0F96178084360707E2130460DF03DFF2146E07891F8331094F8A0
:2063DC003220FF2A14D1491C91FBF0F24243891AC8B284F8320006F0B7F961780843607084
:2063FC0094F83200FE210DF023FF204690F8331084F8311094F8332010462F46810001EB80
:20641C00C0014944898BA570781EE18602D0401E23D025E0172923D91046C91F01AA89B264
:20643C0007F0DEFC9DF80F00C00816D300200090BDF81220E18E94F833000323891AC91FA4
:20645C0001AA89B204F072FD50B9BDF8101039B19DF814000CF0F0F802E0002003F0FCFE93
:20647C0009B0BDE8F08FC046B41D0020002000112DE9FE4F9B461546894682460FF0BBFF0C
:20649C007B49019008680CAF504508BF48687B4C6FF0010828B1B0300FF0CEFC002840F04B
:2064BC00D6800EF05BFC061C00F0DB8004F5C0700FF09BFF0023B4F9A800C6F80C90401CB8
:2064DC0086F832306FF31F30A4F8A800C6F808B0B4F8A80030866748C6F810A097E80C00A3
:2064FC0020210027B8461940104006F1180383E80300424686F8332006F1200383E8800192
:20651C00E8683064287C86F8440028687063287986F83800A868F0636869B064A869F064AE
:20653C00287F86F85000687F86F851002F7C27B9EF6817B1012086F844002F795FB999F836
:20655C000C0000F00F00022805D1012086F83800D9F808007063484608274568002D18BF23
:20657C00002F70D100886FF30900B0F5305F18BF022506D196F83300082540F0100086F8E7
:20659C00330006F1180090E80C00414606F1180745EA0200194387E80300D4F8CC0082451E
:2065BC0007D194F8D000410824BF00F0FE0084F8D00031480768002F39D004F194000090EC
:2065DC00D4F89C10D4F8A02004F18C052B463046B84710F1030F10D0B6F93010B4F9A820D8
:2065FC00914207D0B4F9A81001F6FF716FF31F31A4F8A81010F1020F1BD010F1030F18D00B
:20661C0096F83300B6F9308040F0800086F8330000278AF8F4702868864205D0F068007BD0
:20663C0000F00F0002281CD10AF016FB19E06FF00200B4F9A810804601F6FF716FF31F317F
:20665C00A4F8A81005E07F1E2846FFB285E76FF0020894F8D00040F0040084F8D000C4F8BC
:20667C00CCA0019810F0AAFA4046BDE8FE8FC046C4240020FFEFFF9F708C010018240020AA
:20669C002DE9FE4F0D468246287AC10693461E464FF000090CD5584610F0BCF9030000F04B
:2066BC00EA800A222946504698475FEA00094DD128780C9F0D9CDDF8388002281AD168686E
:2066DC000178407801EB002292B24FF42053D21A012A10D9921E3AD0521E14D0FD3A7BD0D5
:2066FC00521E00F08280521E6ED0521E74D0521E00F09680ACE0002C2AD1E868017839800F
:20671C000278416888E0002C22D101203880E9680A78327000216889401C80B210F076F956
:20673C00398860B10278921C51183980418971704289120AB27041680278F01C6DE0091DCB
:20675C00398004220021701C0FF0A4FA95E0002C67D1E8680488042139803470220A7270AF
:20677C000DF10201204610F051F95FEA000821D0D8F80C40BDF802204FF6FF756B4629463E
:20679C0010F068FA50B998F80030D8F804203C48022110F037F908B9ADF80050207802286F
:2067BC000AD161680222301D0FF06AFA3888801C388001E0ADF80040BDF80000B070BDF8E1
:2067DC000010090AF17058E0002C2AD1E868016850460FF051FB02E01CBBE868008802216C
:2067FC0039803070000A707047E0E8680FF027FE82B2A242B8BF4FF007093EDB944208BF0B
:20681C00002205D008EB04019142B4BF4246121B3A8092B2E868011930460FF031FA2CE05E
:20683C0014B14FF00B0928E0E8680721398002783270437873704188B1704288120AF270FF
:20685C0001793171C2887271C088000AB07114E0584610F0D3F85FEA00090CD09DF83C0004
:20687C000290CDF8048000943B46324629465046C847814601E04FF00E094846BDE8FE8FC2
:20689C00BC8701002DE9FE4FDFF8D4B19BF80000401E03284FF0010808D9103840F0DA80C2
:2068BC00704B1878002110F0C9F9044614B900200DF0A6FF606D6C4F41786C4DC806216D5F
:2068DC004CBF886CC86E0622016801F10806B11C01A80FF0D5F93078C0F380108DF8000023
:2068FC004FF01E0A3278624E02F00F0103292CD101A910F053F9002826D0606D807C01288A
:20691C0018BF032820D1296801A810F043F9FF281AD01AFB00FA286810F80A205044411C1F
